:100000000C942A000C9447000C9447000C94470071
:100010000C9447000C9447000C9447000C94470044
:100020000C9447000C9447000C9447000C94470034
:100030000C9447000C9447000C9447000C94470024
:100040000C9447000C9447000C9447000C94470014
:100050000C94470011241FBECFE5D8E0DEBFCDBF12
:1000600012E0A0E6B0E0EAE0F5E002C005900D92F3
:10007000A034B107D9F722E0A0E4B2E001C01D929C
:10008000A034B207E1F70E9449000C9483020C945B
:1000900000000E9442020E94F00084E10E9452028D
:1000A0000E94250164E470E080E090E00E944D0130
:1000B00065E570E080E090E00E944D0164E570E04D
:1000C00080E090E00E944D0169E570E080E090E002
:1000D0000E944D0163E470E080E090E00E944D01D9
:1000E00069E570E080E090E00E944D0163E470E01B
:1000F00080E090E00E944D016CE470E080E090E0D0
:100100000E944D0165E470E080E090E00E944D01A6
:100110006DE370E080E090E00E944D0162E370E0EA
:1001200080E090E00E944D0160E370E080E090E0AC
:100130000E944D0160E270E081E090E00E944D017C
:1001400066E470E081E090E00E944D016DE370E0B4
:1001500081E090E00E944D0161E370E081E090E079
:100160000E944D0162E370E081E090E00E944D0149
:100170006DE470E081E090E00E944D0168E470E081
:1001800081E090E00E944D016AE770E081E090E03C
:100190000E944D0164E170E085E090E00E948801DA
:1001A0002FEF83ED90E3215080409040E1F700C0B5
:1001B0000000FFCF8BBB85B38E7F85BB85B38D7F62
:1001C00085BB85B3846085BB8AE18A95F1F700C061
:1001D00085B38B7F85BB8AE18A95F1F700C00895CE
:1001E0008FEF8ABB84BB85B3886385BB2FEF89EF14
:1001F00090E0215080409040E1F700C000008EE385
:100200000E94DA0080E40E94DA0088EB0E94DA00A3
:1002100080EC0E94DA008FE30E94DA0008958BBB25
:1002200085B3816085BB85B38D7F85BB85B38460D5
:1002300085BB8AE18A95F1F700C085B38B7F85BBCA
:100240008AE18A95F1F700C008950F931F93CF9329
:10025000DF9385B3886185BB00E010E010C088EBB8
:10026000800F0E94DA00C0E0D0E004C080E00E946D
:100270000F012196C034D105CCF30F5F1F4F08301A
:1002800011056CF380E40E94DA0088EB0E94DA002A
:10029000DF91CF911F910F9108950F931F93CF93EB
:1002A000DF93C62FD0E0BE0160527109EB01CC0F85
:1002B000DD1FCC0FDD1FC60FD71F8E010B5F1F4F39
:1002C00095B3906195BB95B3977F95BB88540E9479
:1002D000DA0041E060E082E00E94D10140E061E0AC
:1002E00082E00E94D10140E062E082E00E94D10100
:1002F00007C0FE01E05AFF4F80810E940F01219646
:10030000C017D107B4F3DF91CF911F910F910895DA
:10031000EF92FF920F931F93CF93DF930DEC609FAB
:10032000012D112406950695069510E095B3906170
:1003300095BB95B3977F95BB88540E94DA00E12C5A
:10034000F12C24C080E00E940F01C0E0D0E004C086
:100350008FE70E940F0121968AE090E0801B910BAD
:10036000C817D907ACF380E00E940F01C0E0D0E0CD
:1003700004C08EEF0E940F012196C017D107CCF365
:1003800080E00E940F018FEFE81AF80A85E0E81676
:10039000F104C4F2DF91CF911F910F91FF90EF9084
:1003A0000895442319F04130C9F10895813091F046
:1003B00028F08230D9F0833029F108952BB381E001
:1003C00090E002C0880F991F6A95E2F7809582231A
:1003D0008BBB089528B381E090E002C0880F991F7D
:1003E0006A95E2F78095822388BB089525B381E062
:1003F00090E002C0880F991F6A95E2F780958223EA
:1004000085BB089522B381E090E002C0880F991F58
:100410006A95E2F78095822382BB0895813089F046
:1004200028F08230C9F0833011F108952BB381E0B8
:1004300090E002C0880F991F6A95E2F7822B8BBB70
:10044000089528B381E090E002C0880F991F6A9553
:10045000E2F7822B88BB089525B381E090E002C0CB
:10046000880F991F6A95E2F7822B85BB089522B306
:1004700081E090E002C0880F991F6A95E2F7822B15
:1004800082BB089587B3886087BB83B7886083BFCA
:1004900083B7806483BF83B7806283BF83B78F7E57
:1004A00083BF0895982F80E064E670E00E945B02AD
:1004B00061506CBF089597FB072E16F4009407D087
:1004C00077FD09D00E946F0207FC05D03EF490959D
:1004D00081959F4F0895709561957F4F0895AA1B50
:1004E000BB1B51E107C0AA1FBB1FA617B70710F01F
:1004F000A61BB70B881F991F5A95A9F78095909551
:0A050000BC01CD010895F894FFCF6F
:10050A00000000000000005F000000070007001460
:10051A007F147F14242A7F2A12231308646236491F
:10052A005522500005030000001C22410000412210
:10053A001C00082A1C2A0808083E08080050300037
:10054A0000080808080800303000002010080402DB
:10055A003E5149453E00427F400042615149462191
:10056A0041454B311814127F1027454545393C4AFD
:10057A00494930017109050336494949360649494D
:10058A00291E0036360000005636000000081422E4
:10059A0041141414141441221408000201510906CA
:1005AA00324979413E7E1111117E7F494949363ED1
:1005BA00414141227F4141221C7F494949417F09EA
:1005CA000901013E414151327F0808087F00417FFD
:1005DA0041002040413F017F081422417F404040B2
:1005EA00407F0204027F7F0408107F3E4141413E62
:1005FA007F090909063E4151215E7F0919294646AC
:10060A004949493101017F01013F4040403F1F20D4
:10061A0040201F7F2018207F631408146303047886
:10062A000403615149454300007F41410204081017
:10063A002041417F00000402010204404040404042
:10064A00000102040020545454787F484444383846
:10065A0044444420384444487F3854545418087E4B
:10066A00090102081454543C7F0804047800447DAC
:10067A0040002040443D00007F10284400417F4054
:10068A00007C041804787C0804047838444444380C
:10069A007C14141408081414187C7C0804040848F0
:1006AA0054545420043F4440203C4040207C1C20A9
:1006BA0040201C3C4030403C44281028440C5050F8
:1006CA00503C4464544C44000836410000007F000A
:1006DA0000004136080008082A1C08081C2A0808D5
:00000001FF
